:020000020000FC
:100000000C942B000C942A000C942A000C942A00C7
:100010000C942A000C945E000C942A000C942A0084
:100020000C942A000C942A000C942A000C942A00A8
:100030000C942A000C942A000C942A000C942A0098
:100040000C942A000C942A000C942A000C942A0088
:100050000C942A001895F894F0E0EFEDFEBFEDBF88
:100060000FEF05BB02BB04BB01BB00EF0BBB0ABB20
:1000700000EC08BB07BB04E005BD03E804BD00E4D9
:1000800009BF00E0002E102E202E302E402EE9D089
:10009000ECD0DD247894FFCF001534F0002E01154C
:1000A0001CF0102E08EC502E08950215ECF3202EB3
:1000B0000315D4F3302E08EC602E08950F930FB77C
:1000C0000F9303E804BD1F93EF93FF93CED04394A7
:1000D00040FC09C0BCD041FC03C0002D0024CDD0A1
:1000E000012DDDD008C0B8D041FC03C0022D222470
:1000F000C4D0032DD4D0000003E0042171F41120FA
:1001000029F05A9419F41A9404E0502E332029F05F
:100110006A9419F43A9404E0602E00000A2DBCDFC2
:100120000B2DC3DFCA94CA9459F4D394D394EEE44C
:10013000F1E000E0ED0DF01F0591A02E0491B02E2E
:10014000FF91EF911F910F910FBF0F91189507002D
:10015000080109020A030B040E090413010100003F
:100160000202040403030204030304020101000069
:10017000000000000000000000000000000014006B
:10018000000000120000000000000000000000005D
:10019000000000000000000000000000000000005F
:1001A000000000000000000000000000000000004F
:1001B000001100000000000000000000000000002E
:1001C0000000000000000000000000000000070028
:1001D000080109020A030B040E09041301010000BF
:1001E00002020404030302040303040201010000E9
:1001F00000000000000000000000000000001400EB
:1002000000000012000000000000000000000000DC
:1002100000000000000000000000000000000000DE
:1002200000000000000000000000000000000000CE
:1002300000110000000000000000000000000000AD
:10024000000000000000000000000000000008B3F3
:10025000006C0F7B08BB089508B3006C0F7708BBD8
:10026000089508B3006C08BB08950FEF02BB05BBEF
:100270000BB30F70006F0BBB0895E02F000F0E0F34
:10028000E8ECF2E0E00F00E0F01F059102BB059101
:1002900005BB0491EBB3EF700E2B0BBB0895E02F61
:1002A000000F0E0FE8E0F3E0E00F00E0F01F12B3E4
:1002B0000591012302BB15B30591012305BB1BB3B7
:1002C000049101230BBB0895FFFFF0FFFFE0FFFF48
:1002D000C0FFFF80FFFF00FF7F00FF3F00FF1F0008
:1002E000FF0F00FF0700FF0300FF0100FF00007F7A
:1002F00000003F00001F00000F0000070000030087
:100300000001000000000000FFFFF0FFFFE0FFFF22
:10031000D0FFFFB0FFFF70FF7FF0FFBFF0FFDFF007
:10032000FFEFF0FFF7F0FFFBF0FFFDF0FFFEF07FC7
:10033000FFF0BFFFF0DFFFF0EFFFF0F7FFF0FBFF94
:08034000F0FDFFF0FEFFF000EC
:00000001FF
