:020000020000FC
:100000000C942B000C942A000C942A000C942A00C7
:100010000C942A000C944F000C942A000C942A0093
:100020000C942A000C942A000C942A000C942A00A8
:100030000C942A000C942A000C942A000C942A0098
:100040000C9486000C942A000C942A000C942A002C
:100050000C942A001895F894F0E0EFEDFEBFEDBF88
:100060000FEF05BB02BB04BB01BB00EF0BBB0ABB20
:1000700000EC08BB07BB04E005BD03E804BD00E4D9
:1000800009BF00E0002E102E202E302E402E69D009
:100090006CD000E407B90EEC06B97894FFCF0F934B
:1000A0000FB70F9303E804BD1F93EF93FF935DD049
:1000B000439440FC09C04BD041FC03C0002D0024F8
:1000C0005CD0012D6CD008C047D041FC03C0022D8C
:1000D000222453D0032D63D0000003E0042171F4E7
:1000E000112029F05A9419F41A9403E0502E332069
:1000F00029F06A9419F43A9403E0602E0000FF910D
:10010000EF911F910F910FBF0F9118950F930FB79C
:100110000F931F9307B1017029F474B085B001E407
:1001200007B904C094B0A5B000E407B91EEC16B935
:10013000017041F4072D182D99D086D0092D1A2D64
:1001400095D08BD01F910F910FBF0F91189508B3C9
:10015000006C0F7B08BB089508B3006C0F7708BBD9
:10016000089508B3006C08BB08950FEF02BB05BBF0
:100170000BB30F70006F0BBB0895E02F000F0E0F35
:10018000E8ECF1E0E00F00E0F01F059102BB059103
:1001900005BB0491EBB3EF700E2B0BBB0895E02F62
:1001A000000F0E0FE8E0F2E0E00F00E0F01F12B3E6
:1001B0000591012302BB15B30591012305BB1BB3B8
:1001C000049101230BBB0895FFFFF0FFFFE0FFFF49
:1001D000C0FFFF80FFFF00FF7F00FF3F00FF1F0009
:1001E000FF0F00FF0700FF0300FF0100FF00007F7B
:1001F00000003F00001F00000F0000070000030088
:100200000001000000000000FFFFF0FFFFE0FFFF23
:10021000D0FFFFB0FFFF70FF7FF0FFBFF0FFDFF008
:10022000FFEFF0FFF7F0FFFBF0FFFDF0FFFEF07FC8
:10023000FFF0BFFFF0DFFFF0EFFFF0F7FFF0FBFF95
:10024000F0FDFFF0FEFFF000001534F0002E011568
:100250001CF0102E08EC502E08950215ECF3202E01
:100260000315D4F3302E08EC602E0895103008F1F9
:1002700011F40C3CF0F0123028F011F4023010F0C0
:1002800004E10895113060F011F4043448F01130A5
:1002900028F011F4083910F003E1089502E10895FF
:1002A000113028F011F4013010F001E1089500E15F
:1002B00008951030B0F111F4003298F11030D0F000
:1002C00011F40135B8F0103060F011F4013848F045
:1002D000103028F011F4023A10F00FE008950EE00B
:1002E0000895103028F011F4063610F00DE008954E
:1002F0000CE00895103060F011F4033348F0103032
:1003000028F011F4003410F00BE008950AE008958D
:10031000103028F011F4083210F009E0089508E0D8
:1003200008951030D0F011F40C30B8F0103060F0B7
:1003300011F4043148F0103028F011F4093110F0B4
:1003400007E0089506E00895103028F011F4003118
:1003500010F005E0089504E00895103060F011F405
:10036000083048F0103028F011F40A3010F003E0A3
:10037000089502E00895103028F011F4063010F0CE
:0803800001E0089500E008957A
:00000001FF
