:020000020000FC
:100000000C942B000C942A000C942A000C942A00C7
:100010000C942A000C9453000C942A000C942A008F
:100020000C942A000C942A000C942A000C942A00A8
:100030000C942A000C942A000C942A000C942A0098
:100040000C942A000C942A000C942A000C942A0088
:100050000C942A001895F894F0E0EFEDFEBFEDBF88
:100060000FEF05BB02BB04BB01BB00EF0BBB0ABB20
:1000700000EC08BB07BB04E005BD03E804BD00E4D9
:1000800009BF00E0002E102E202E302E402E37D03B
:100090003AD009E0002E0BE0102E01E1202E08E0FE
:1000A000302E7894FFCF0F930FB70F9303E804BD62
:1000B0001F93EF93FF9327D0439440FC08C015D0C3
:1000C00041FC02C0002D27D0012D37D007C012D02F
:1000D00041FC02C0022D1FD0032D2FD0FF91EF91C4
:1000E0001F910F910FBF0F91189508B3006C0F7BF4
:1000F00008BB089508B3006C0F7708BB089508B3D8
:10010000006C08BB08950FEF02BB05BB0BB30F706B
:10011000006F0BBB0895E02F000F0E0FE4E6F1E037
:10012000E00F00E0F01F059102BB059105BB0491B3
:10013000EBB3EF700E2B0BBB0895E02F000F0E0FEB
:10014000E4EAF1E0E00F00E0F01F12B305910123B3
:1001500002BB15B30591012305BB1BB30491012319
:100160000BBB0895FFFFF0FFFFE0FFFFC0FFFF8024
:10017000FFFF00FF7F00FF3F00FF1F00FF0F00FF9A
:100180000700FF0300FF0100FF00007F00003F00A9
:10019000001F00000F000007000003000001000026
:1001A00000000000FFFFF0FFFFE0FFFFD0FFFFB007
:1001B000FFFF70FF7FF0FFBFF0FFDFF0FFEFF0FF0A
:1001C000F7F0FFFBF0FFFDF0FFFEF07FFFF0BFFF59
:1001D000F0DFFFF0EFFFF0F7FFF0FBFFF0FDFFF0C7
:0401E000FEFFF0002E
:00000001FF
